{
  "_format": "hh-sol-artifact-1",
  "contractName": "ContextDocument",
  "sourceName": "contracts/ContextDocument.sol",
  "abi": [
    {
      "inputs": [
        {
          "internalType": "address",
          "name": "_owner",
          "type": "address"
        }
      ],
      "stateMutability": "nonpayable",
      "type": "constructor"
    },
    {
      "anonymous": false,
      "inputs": [
        {
          "indexed": true,
          "internalType": "address",
          "name": "previousOwner",
          "type": "address"
        },
        {
          "indexed": true,
          "internalType": "address",
          "name": "newOwner",
          "type": "address"
        }
      ],
      "name": "OwnershipTransferred",
      "type": "event"
    },
    {
      "inputs": [
        {
          "internalType": "bytes32",
          "name": "",
          "type": "bytes32"
        }
      ],
      "name": "document",
      "outputs": [
        {
          "internalType": "uint64",
          "name": "versionId",
          "type": "uint64"
        }
      ],
      "stateMutability": "view",
      "type": "function"
    },
    {
      "inputs": [],
      "name": "owner",
      "outputs": [
        {
          "internalType": "address",
          "name": "",
          "type": "address"
        }
      ],
      "stateMutability": "view",
      "type": "function"
    },
    {
      "inputs": [
        {
          "internalType": "string",
          "name": "_name",
          "type": "string"
        },
        {
          "internalType": "string",
          "name": "major",
          "type": "string"
        },
        {
          "internalType": "string",
          "name": "minor",
          "type": "string"
        },
        {
          "internalType": "string",
          "name": "patch",
          "type": "string"
        }
      ],
      "name": "pushMajor",
      "outputs": [],
      "stateMutability": "nonpayable",
      "type": "function"
    },
    {
      "inputs": [
        {
          "internalType": "string",
          "name": "_name",
          "type": "string"
        },
        {
          "internalType": "string",
          "name": "minor",
          "type": "string"
        },
        {
          "internalType": "string",
          "name": "patch",
          "type": "string"
        }
      ],
      "name": "pushMinor",
      "outputs": [],
      "stateMutability": "nonpayable",
      "type": "function"
    },
    {
      "inputs": [
        {
          "internalType": "string",
          "name": "_name",
          "type": "string"
        },
        {
          "internalType": "string",
          "name": "patch",
          "type": "string"
        }
      ],
      "name": "pushPatch",
      "outputs": [],
      "stateMutability": "nonpayable",
      "type": "function"
    },
    {
      "inputs": [
        {
          "internalType": "string",
          "name": "name",
          "type": "string"
        }
      ],
      "name": "read",
      "outputs": [
        {
          "internalType": "uint64",
          "name": "",
          "type": "uint64"
        },
        {
          "internalType": "string",
          "name": "",
          "type": "string"
        },
        {
          "internalType": "string",
          "name": "",
          "type": "string"
        },
        {
          "internalType": "string",
          "name": "",
          "type": "string"
        }
      ],
      "stateMutability": "view",
      "type": "function"
    },
    {
      "inputs": [
        {
          "internalType": "string",
          "name": "name",
          "type": "string"
        },
        {
          "internalType": "uint64",
          "name": "versionId",
          "type": "uint64"
        }
      ],
      "name": "readVersion",
      "outputs": [
        {
          "internalType": "uint64",
          "name": "",
          "type": "uint64"
        },
        {
          "internalType": "string",
          "name": "",
          "type": "string"
        },
        {
          "internalType": "string",
          "name": "",
          "type": "string"
        },
        {
          "internalType": "string",
          "name": "",
          "type": "string"
        }
      ],
      "stateMutability": "view",
      "type": "function"
    },
    {
      "inputs": [],
      "name": "renounceOwnership",
      "outputs": [],
      "stateMutability": "nonpayable",
      "type": "function"
    },
    {
      "inputs": [
        {
          "internalType": "address",
          "name": "newOwner",
          "type": "address"
        }
      ],
      "name": "transferOwnership",
      "outputs": [],
      "stateMutability": "nonpayable",
      "type": "function"
    }
  ],
  "bytecode": "0x608060405234801561001057600080fd5b5060405162000fa138038062000fa183398101604081905261003191610173565b61003a33610049565b61004381610099565b506101a3565b600080546001600160a01b038381166001600160a01b0319831681178455604051919092169283917f8be0079c531659141344cd1fd0a4f28419497f9722a3daafe3b4186f6b6457e09190a35050565b6100a1610117565b6001600160a01b03811661010b5760405162461bcd60e51b815260206004820152602660248201527f4f776e61626c653a206e6577206f776e657220697320746865207a65726f206160448201526564647265737360d01b60648201526084015b60405180910390fd5b61011481610049565b50565b6000546001600160a01b031633146101715760405162461bcd60e51b815260206004820181905260248201527f4f776e61626c653a2063616c6c6572206973206e6f7420746865206f776e65726044820152606401610102565b565b60006020828403121561018557600080fd5b81516001600160a01b038116811461019c57600080fd5b9392505050565b610dee80620001b36000396000f3fe608060405234801561001057600080fd5b50600436106100935760003560e01c80638da5cb5b116100665780638da5cb5b146100f4578063a51ec3bf1461010f578063c5b487b014610150578063ecf260af14610163578063f2fde38b1461017657600080fd5b806302764e3114610098578063616ffe83146100ad578063668e7d9c146100d9578063715018a6146100ec575b600080fd5b6100ab6100a636600461098a565b610189565b005b6100c06100bb366004610a35565b61025d565b6040516100d09493929190610ac3565b60405180910390f35b6100c06100e7366004610b16565b6102bf565b6100ab61050d565b6000546040516001600160a01b0390911681526020016100d0565b61013861011d366004610b74565b6001602052600090815260409020546001600160401b031681565b6040516001600160401b0390911681526020016100d0565b6100ab61015e366004610b8d565b610521565b6100ab610171366004610c39565b61060b565b6100ab610184366004610cc0565b61072c565b6101916107a5565b815160208084019190912060008181526001909252604090912080546001600160401b03166102015760405162461bcd60e51b8152602060048201526017602482015276111bd8dd5b595b9d08191bd95cc81b9bdd08195e1a5cdd604a1b60448201526064015b60405180910390fd5b8054610217906001600160401b03166001610d06565b815467ffffffffffffffff19166001600160401b039190911690811782556000908152600382016020908152604090912084516102569286019061084f565b5050505050565b60006060806060600060016000888860405161027a929190610d31565b6040805191829003909120825260208201929092520160002080549091506102ae90889088906001600160401b03166102bf565b929a91995097509095509350505050565b6000606080606060006001600089896040516102dc929190610d31565b60408051918290039091208252602080830193909352908101600090812061ffff8a851c908116835260018201855283832060108c901c63ffffffff81811686526002850188528686206001600160401b038f16875260038601909852959094208154939750949091169465ffffffffffff909316938b939192839061036190610d41565b80601f016020809104026020016040519081016040528092919081815260200182805461038d90610d41565b80156103da5780601f106103af576101008083540402835291602001916103da565b820191906000526020600020905b8154815290600101906020018083116103bd57829003601f168201915b505050505092508180546103ed90610d41565b80601f016020809104026020016040519081016040528092919081815260200182805461041990610d41565b80156104665780601f1061043b57610100808354040283529160200191610466565b820191906000526020600020905b81548152906001019060200180831161044957829003601f168201915b5050505050915080805461047990610d41565b80601f01602080910402602001604051908101604052809291908181526020018280546104a590610d41565b80156104f25780601f106104c7576101008083540402835291602001916104f2565b820191906000526020600020905b8154815290600101906020018083116104d557829003601f168201915b50505050509050965096509650965050505093509350935093565b6105156107a5565b61051f60006107ff565b565b6105296107a5565b8351602080860191909120600081815260018084526040822080549394909361055a92911c63ffffffff1690610d7c565b61ffff811660009081526001840160209081526040909120885192935061058592909189019061084f565b508154602082811b65ffff000000001667ffffffffffffffff19909216919091178355601082901b63ffff000016600081815260028501835260409020875191926105d3929089019061084f565b5082546001600160401b03166000908152600384016020908152604090912086516106009288019061084f565b505050505050505050565b6106136107a5565b825160208085019190912060008181526001909252604090912080546001600160401b031661067e5760405162461bcd60e51b8152602060048201526017602482015276111bd8dd5b595b9d08191bd95cc81b9bdd08195e1a5cdd604a1b60448201526064016101f8565b8054602081901c63ffffffff16906000906106a59060101c65ffffffffffff166001610d99565b835467ffffffffffffffff191665ffff00000000602085811b9190911665ffffffff0000601085901b161791909117855563ffffffff8216600090815260028601825260408120895193945090926106ff928a019061084f565b5083546001600160401b03166000908152600385016020908152604090912087516106009289019061084f565b6107346107a5565b6001600160a01b0381166107995760405162461bcd60e51b815260206004820152602660248201527f4f776e61626c653a206e6577206f776e657220697320746865207a65726f206160448201526564647265737360d01b60648201526084016101f8565b6107a2816107ff565b50565b6000546001600160a01b0316331461051f5760405162461bcd60e51b815260206004820181905260248201527f4f776e61626c653a2063616c6c6572206973206e6f7420746865206f776e657260448201526064016101f8565b600080546001600160a01b038381166001600160a01b0319831681178455604051919092169283917f8be0079c531659141344cd1fd0a4f28419497f9722a3daafe3b4186f6b6457e09190a35050565b82805461085b90610d41565b90600052602060002090601f01602090048101928261087d57600085556108c3565b82601f1061089657805160ff19168380011785556108c3565b828001600101855582156108c3579182015b828111156108c35782518255916020019190600101906108a8565b506108cf9291506108d3565b5090565b5b808211156108cf57600081556001016108d4565b634e487b7160e01b600052604160045260246000fd5b600082601f83011261090f57600080fd5b81356001600160401b0380821115610929576109296108e8565b604051601f8301601f19908116603f01168101908282118183101715610951576109516108e8565b8160405283815286602085880101111561096a57600080fd5b836020870160208301376000602085830101528094505050505092915050565b6000806040838503121561099d57600080fd5b82356001600160401b03808211156109b457600080fd5b6109c0868387016108fe565b935060208501359150808211156109d657600080fd5b506109e3858286016108fe565b9150509250929050565b60008083601f8401126109ff57600080fd5b5081356001600160401b03811115610a1657600080fd5b602083019150836020828501011115610a2e57600080fd5b9250929050565b60008060208385031215610a4857600080fd5b82356001600160401b03811115610a5e57600080fd5b610a6a858286016109ed565b90969095509350505050565b6000815180845260005b81811015610a9c57602081850181015186830182015201610a80565b81811115610aae576000602083870101525b50601f01601f19169290920160200192915050565b6001600160401b0385168152608060208201526000610ae56080830186610a76565b8281036040840152610af78186610a76565b90508281036060840152610b0b8185610a76565b979650505050505050565b600080600060408486031215610b2b57600080fd5b83356001600160401b0380821115610b4257600080fd5b610b4e878388016109ed565b9095509350602086013591508082168214610b6857600080fd5b50809150509250925092565b600060208284031215610b8657600080fd5b5035919050565b60008060008060808587031215610ba357600080fd5b84356001600160401b0380821115610bba57600080fd5b610bc6888389016108fe565b95506020870135915080821115610bdc57600080fd5b610be8888389016108fe565b94506040870135915080821115610bfe57600080fd5b610c0a888389016108fe565b93506060870135915080821115610c2057600080fd5b50610c2d878288016108fe565b91505092959194509250565b600080600060608486031215610c4e57600080fd5b83356001600160401b0380821115610c6557600080fd5b610c71878388016108fe565b94506020860135915080821115610c8757600080fd5b610c93878388016108fe565b93506040860135915080821115610ca957600080fd5b50610cb6868287016108fe565b9150509250925092565b600060208284031215610cd257600080fd5b81356001600160a01b0381168114610ce957600080fd5b9392505050565b634e487b7160e01b600052601160045260246000fd5b60006001600160401b03808316818516808303821115610d2857610d28610cf0565b01949350505050565b8183823760009101908152919050565b600181811c90821680610d5557607f821691505b60208210811415610d7657634e487b7160e01b600052602260045260246000fd5b50919050565b600061ffff808316818516808303821115610d2857610d28610cf0565b600063ffffffff808316818516808303821115610d2857610d28610cf056fea26469706673582212208cda3f536fa71e8a89014ab93cdfef48a8e5391033168e77a9e3d3c174877ad064736f6c63430008090033",
  "linkReferences": {},
  "deployedLinkReferences": {}
}