{
  "_format": "hh-sol-artifact-1",
  "contractName": "ContextRegistry",
  "sourceName": "contracts/ContextRegistry.sol",
  "abi": [
    {
      "inputs": [
        {
          "internalType": "contract ContextToken",
          "name": "_token",
          "type": "address"
        }
      ],
      "stateMutability": "nonpayable",
      "type": "constructor"
    },
    {
      "anonymous": false,
      "inputs": [
        {
          "indexed": false,
          "internalType": "address",
          "name": "",
          "type": "address"
        },
        {
          "indexed": false,
          "internalType": "string",
          "name": "",
          "type": "string"
        },
        {
          "indexed": false,
          "internalType": "uint256",
          "name": "",
          "type": "uint256"
        }
      ],
      "name": "DEPOSIT",
      "type": "event"
    },
    {
      "anonymous": false,
      "inputs": [
        {
          "indexed": false,
          "internalType": "uint256",
          "name": "",
          "type": "uint256"
        },
        {
          "indexed": false,
          "internalType": "address",
          "name": "",
          "type": "address"
        },
        {
          "indexed": false,
          "internalType": "contract ContextFees",
          "name": "",
          "type": "address"
        }
      ],
      "name": "NEWEPOCH",
      "type": "event"
    },
    {
      "anonymous": false,
      "inputs": [
        {
          "indexed": false,
          "internalType": "string",
          "name": "",
          "type": "string"
        },
        {
          "indexed": false,
          "internalType": "address",
          "name": "",
          "type": "address"
        }
      ],
      "name": "NEWOWNER",
      "type": "event"
    },
    {
      "anonymous": false,
      "inputs": [
        {
          "indexed": false,
          "internalType": "string",
          "name": "_type",
          "type": "string"
        },
        {
          "indexed": false,
          "internalType": "string",
          "name": "_name",
          "type": "string"
        },
        {
          "indexed": false,
          "internalType": "string",
          "name": "_subname",
          "type": "string"
        },
        {
          "indexed": false,
          "internalType": "string",
          "name": "_patch",
          "type": "string"
        }
      ],
      "name": "PUSHED",
      "type": "event"
    },
    {
      "anonymous": false,
      "inputs": [
        {
          "indexed": false,
          "internalType": "address",
          "name": "account",
          "type": "address"
        }
      ],
      "name": "Paused",
      "type": "event"
    },
    {
      "anonymous": false,
      "inputs": [
        {
          "indexed": false,
          "internalType": "string",
          "name": "_name",
          "type": "string"
        },
        {
          "indexed": false,
          "internalType": "address",
          "name": "_owner",
          "type": "address"
        },
        {
          "indexed": false,
          "internalType": "address",
          "name": "_curator",
          "type": "address"
        }
      ],
      "name": "REGISTERED",
      "type": "event"
    },
    {
      "anonymous": false,
      "inputs": [
        {
          "indexed": true,
          "internalType": "bytes32",
          "name": "role",
          "type": "bytes32"
        },
        {
          "indexed": true,
          "internalType": "bytes32",
          "name": "previousAdminRole",
          "type": "bytes32"
        },
        {
          "indexed": true,
          "internalType": "bytes32",
          "name": "newAdminRole",
          "type": "bytes32"
        }
      ],
      "name": "RoleAdminChanged",
      "type": "event"
    },
    {
      "anonymous": false,
      "inputs": [
        {
          "indexed": true,
          "internalType": "bytes32",
          "name": "role",
          "type": "bytes32"
        },
        {
          "indexed": true,
          "internalType": "address",
          "name": "account",
          "type": "address"
        },
        {
          "indexed": true,
          "internalType": "address",
          "name": "sender",
          "type": "address"
        }
      ],
      "name": "RoleGranted",
      "type": "event"
    },
    {
      "anonymous": false,
      "inputs": [
        {
          "indexed": true,
          "internalType": "bytes32",
          "name": "role",
          "type": "bytes32"
        },
        {
          "indexed": true,
          "internalType": "address",
          "name": "account",
          "type": "address"
        },
        {
          "indexed": true,
          "internalType": "address",
          "name": "sender",
          "type": "address"
        }
      ],
      "name": "RoleRevoked",
      "type": "event"
    },
    {
      "anonymous": false,
      "inputs": [
        {
          "indexed": false,
          "internalType": "address",
          "name": "",
          "type": "address"
        },
        {
          "indexed": false,
          "internalType": "string",
          "name": "",
          "type": "string"
        },
        {
          "indexed": false,
          "internalType": "string",
          "name": "",
          "type": "string"
        },
        {
          "indexed": false,
          "internalType": "uint256",
          "name": "",
          "type": "uint256"
        }
      ],
      "name": "SENT",
      "type": "event"
    },
    {
      "anonymous": false,
      "inputs": [
        {
          "indexed": false,
          "internalType": "address",
          "name": "",
          "type": "address"
        },
        {
          "indexed": false,
          "internalType": "string",
          "name": "",
          "type": "string"
        }
      ],
      "name": "SNAP",
      "type": "event"
    },
    {
      "anonymous": false,
      "inputs": [
        {
          "indexed": false,
          "internalType": "address",
          "name": "account",
          "type": "address"
        }
      ],
      "name": "Unpaused",
      "type": "event"
    },
    {
      "anonymous": false,
      "inputs": [
        {
          "indexed": false,
          "internalType": "address",
          "name": "",
          "type": "address"
        },
        {
          "indexed": false,
          "internalType": "string",
          "name": "",
          "type": "string"
        },
        {
          "indexed": false,
          "internalType": "uint256",
          "name": "",
          "type": "uint256"
        }
      ],
      "name": "WITHDRAW",
      "type": "event"
    },
    {
      "inputs": [],
      "name": "CURATOR_ROLE",
      "outputs": [
        {
          "internalType": "bytes32",
          "name": "",
          "type": "bytes32"
        }
      ],
      "stateMutability": "view",
      "type": "function"
    },
    {
      "inputs": [],
      "name": "DEFAULT_ADMIN_ROLE",
      "outputs": [
        {
          "internalType": "bytes32",
          "name": "",
          "type": "bytes32"
        }
      ],
      "stateMutability": "view",
      "type": "function"
    },
    {
      "inputs": [],
      "name": "THANOS_ROLE",
      "outputs": [
        {
          "internalType": "bytes32",
          "name": "",
          "type": "bytes32"
        }
      ],
      "stateMutability": "view",
      "type": "function"
    },
    {
      "inputs": [],
      "name": "UPGRADE_ROLE",
      "outputs": [
        {
          "internalType": "bytes32",
          "name": "",
          "type": "bytes32"
        }
      ],
      "stateMutability": "view",
      "type": "function"
    },
    {
      "inputs": [
        {
          "internalType": "string",
          "name": "name",
          "type": "string"
        }
      ],
      "name": "balanceOf",
      "outputs": [
        {
          "internalType": "uint256",
          "name": "",
          "type": "uint256"
        }
      ],
      "stateMutability": "view",
      "type": "function"
    },
    {
      "inputs": [
        {
          "internalType": "address",
          "name": "contextNFT",
          "type": "address"
        },
        {
          "internalType": "contract ContextFees",
          "name": "contextFees",
          "type": "address"
        }
      ],
      "name": "changeEpoch",
      "outputs": [],
      "stateMutability": "nonpayable",
      "type": "function"
    },
    {
      "inputs": [
        {
          "internalType": "string",
          "name": "name",
          "type": "string"
        },
        {
          "internalType": "address",
          "name": "newOnwer",
          "type": "address"
        }
      ],
      "name": "changeOwner",
      "outputs": [],
      "stateMutability": "nonpayable",
      "type": "function"
    },
    {
      "inputs": [],
      "name": "ctx_marketplace",
      "outputs": [
        {
          "internalType": "string",
          "name": "",
          "type": "string"
        }
      ],
      "stateMutability": "view",
      "type": "function"
    },
    {
      "inputs": [],
      "name": "currentEpoch",
      "outputs": [
        {
          "internalType": "uint256",
          "name": "",
          "type": "uint256"
        }
      ],
      "stateMutability": "view",
      "type": "function"
    },
    {
      "inputs": [
        {
          "internalType": "string",
          "name": "name",
          "type": "string"
        },
        {
          "internalType": "uint256",
          "name": "amount",
          "type": "uint256"
        }
      ],
      "name": "deposit",
      "outputs": [],
      "stateMutability": "nonpayable",
      "type": "function"
    },
    {
      "inputs": [
        {
          "internalType": "uint256",
          "name": "",
          "type": "uint256"
        }
      ],
      "name": "epochs",
      "outputs": [
        {
          "internalType": "address",
          "name": "contextNFT",
          "type": "address"
        },
        {
          "internalType": "contract ContextFees",
          "name": "contextFees",
          "type": "address"
        }
      ],
      "stateMutability": "view",
      "type": "function"
    },
    {
      "inputs": [
        {
          "internalType": "bytes32",
          "name": "role",
          "type": "bytes32"
        }
      ],
      "name": "getRoleAdmin",
      "outputs": [
        {
          "internalType": "bytes32",
          "name": "",
          "type": "bytes32"
        }
      ],
      "stateMutability": "view",
      "type": "function"
    },
    {
      "inputs": [
        {
          "internalType": "bytes32",
          "name": "role",
          "type": "bytes32"
        },
        {
          "internalType": "address",
          "name": "account",
          "type": "address"
        }
      ],
      "name": "grantRole",
      "outputs": [],
      "stateMutability": "nonpayable",
      "type": "function"
    },
    {
      "inputs": [
        {
          "internalType": "bytes32",
          "name": "role",
          "type": "bytes32"
        },
        {
          "internalType": "address",
          "name": "account",
          "type": "address"
        }
      ],
      "name": "hasRole",
      "outputs": [
        {
          "internalType": "bool",
          "name": "",
          "type": "bool"
        }
      ],
      "stateMutability": "view",
      "type": "function"
    },
    {
      "inputs": [],
      "name": "pause",
      "outputs": [],
      "stateMutability": "nonpayable",
      "type": "function"
    },
    {
      "inputs": [],
      "name": "paused",
      "outputs": [
        {
          "internalType": "bool",
          "name": "",
          "type": "bool"
        }
      ],
      "stateMutability": "view",
      "type": "function"
    },
    {
      "inputs": [
        {
          "internalType": "string",
          "name": "name",
          "type": "string"
        },
        {
          "internalType": "string",
          "name": "subname",
          "type": "string"
        },
        {
          "internalType": "string",
          "name": "major",
          "type": "string"
        },
        {
          "internalType": "string",
          "name": "minor",
          "type": "string"
        },
        {
          "internalType": "string",
          "name": "patch",
          "type": "string"
        },
        {
          "internalType": "string",
          "name": "frontend",
          "type": "string"
        }
      ],
      "name": "pushMajor",
      "outputs": [],
      "stateMutability": "nonpayable",
      "type": "function"
    },
    {
      "inputs": [
        {
          "internalType": "string",
          "name": "name",
          "type": "string"
        },
        {
          "internalType": "string",
          "name": "subname",
          "type": "string"
        },
        {
          "internalType": "string",
          "name": "minor",
          "type": "string"
        },
        {
          "internalType": "string",
          "name": "patch",
          "type": "string"
        },
        {
          "internalType": "string",
          "name": "frontend",
          "type": "string"
        }
      ],
      "name": "pushMinor",
      "outputs": [],
      "stateMutability": "nonpayable",
      "type": "function"
    },
    {
      "inputs": [
        {
          "internalType": "string",
          "name": "name",
          "type": "string"
        },
        {
          "internalType": "string",
          "name": "subname",
          "type": "string"
        },
        {
          "internalType": "string",
          "name": "patch",
          "type": "string"
        },
        {
          "internalType": "string",
          "name": "frontend",
          "type": "string"
        }
      ],
      "name": "pushPatch",
      "outputs": [],
      "stateMutability": "nonpayable",
      "type": "function"
    },
    {
      "inputs": [
        {
          "internalType": "string",
          "name": "name",
          "type": "string"
        }
      ],
      "name": "read",
      "outputs": [
        {
          "internalType": "address",
          "name": "",
          "type": "address"
        },
        {
          "internalType": "address",
          "name": "",
          "type": "address"
        }
      ],
      "stateMutability": "view",
      "type": "function"
    },
    {
      "inputs": [
        {
          "internalType": "string",
          "name": "name",
          "type": "string"
        },
        {
          "internalType": "address",
          "name": "owner",
          "type": "address"
        }
      ],
      "name": "register",
      "outputs": [],
      "stateMutability": "nonpayable",
      "type": "function"
    },
    {
      "inputs": [
        {
          "internalType": "bytes32",
          "name": "",
          "type": "bytes32"
        }
      ],
      "name": "registry",
      "outputs": [
        {
          "internalType": "address",
          "name": "owner",
          "type": "address"
        },
        {
          "internalType": "uint256",
          "name": "tokens",
          "type": "uint256"
        },
        {
          "internalType": "address",
          "name": "document",
          "type": "address"
        }
      ],
      "stateMutability": "view",
      "type": "function"
    },
    {
      "inputs": [
        {
          "internalType": "bytes32",
          "name": "role",
          "type": "bytes32"
        },
        {
          "internalType": "address",
          "name": "account",
          "type": "address"
        }
      ],
      "name": "renounceRole",
      "outputs": [],
      "stateMutability": "nonpayable",
      "type": "function"
    },
    {
      "inputs": [
        {
          "internalType": "bytes32",
          "name": "role",
          "type": "bytes32"
        },
        {
          "internalType": "address",
          "name": "account",
          "type": "address"
        }
      ],
      "name": "revokeRole",
      "outputs": [],
      "stateMutability": "nonpayable",
      "type": "function"
    },
    {
      "inputs": [
        {
          "internalType": "string",
          "name": "_from",
          "type": "string"
        },
        {
          "internalType": "string",
          "name": "_to",
          "type": "string"
        },
        {
          "internalType": "uint256",
          "name": "amount",
          "type": "uint256"
        }
      ],
      "name": "send",
      "outputs": [],
      "stateMutability": "nonpayable",
      "type": "function"
    },
    {
      "inputs": [
        {
          "internalType": "string",
          "name": "name",
          "type": "string"
        }
      ],
      "name": "snap",
      "outputs": [],
      "stateMutability": "nonpayable",
      "type": "function"
    },
    {
      "inputs": [
        {
          "internalType": "bytes4",
          "name": "interfaceId",
          "type": "bytes4"
        }
      ],
      "name": "supportsInterface",
      "outputs": [
        {
          "internalType": "bool",
          "name": "",
          "type": "bool"
        }
      ],
      "stateMutability": "view",
      "type": "function"
    },
    {
      "inputs": [],
      "name": "token",
      "outputs": [
        {
          "internalType": "contract ContextToken",
          "name": "",
          "type": "address"
        }
      ],
      "stateMutability": "view",
      "type": "function"
    },
    {
      "inputs": [],
      "name": "unpause",
      "outputs": [],
      "stateMutability": "nonpayable",
      "type": "function"
    },
    {
      "inputs": [],
      "name": "upgrader",
      "outputs": [
        {
          "internalType": "address",
          "name": "",
          "type": "address"
        }
      ],
      "stateMutability": "view",
      "type": "function"
    },
    {
      "inputs": [
        {
          "internalType": "string",
          "name": "name",
          "type": "string"
        },
        {
          "internalType": "uint256",
          "name": "amount",
          "type": "uint256"
        }
      ],
      "name": "withdraw",
      "outputs": [],
      "stateMutability": "nonpayable",
      "type": "function"
    }
  ],
  "bytecode": "0x60806040523480156200001157600080fd5b5060405162003d8d38038062003d8d833981016040819052620000349162000153565b600180556002805460ff19169055600480546001600160a01b0319166001600160a01b03831617905560006003819055620000709033620000a3565b6200009c7f88aa719609f728b0c5e7fb8dd3608d5c25d497efbb3b9dd64e9251ebba10150833620000a3565b5062000185565b620000af8282620000b3565b5050565b6000828152602081815260408083206001600160a01b038516845290915290205460ff16620000af576000828152602081815260408083206001600160a01b03851684529091529020805460ff191660011790556200010f3390565b6001600160a01b0316816001600160a01b0316837f2f8788117e7eff1d82e926ec794901d17c78024a50270940304540a733656f0d60405160405180910390a45050565b6000602082840312156200016657600080fd5b81516001600160a01b03811681146200017e57600080fd5b9392505050565b613bf880620001956000396000f3fe60806040523480156200001157600080fd5b50600436106200020d5760003560e01c8063616ffe831162000125578063af26974511620000af578063d547741f116200007a578063d547741f1462000576578063d8f9d144146200058d578063eb54943e14620005a4578063fc0c546a14620005bb57600080fd5b8063af26974514620004d3578063b908afa81462000500578063c6b61e4c1462000528578063cd485c28146200055f57600080fd5b80638456cb5911620000f05780638456cb5914620004925780638e27d719146200049c57806391d1485414620004b3578063a217fddf14620004ca57600080fd5b8063616ffe8314620003d15780637667180814620004095780637789f50114620004135780637ef50298146200042a57600080fd5b8063315d6e6011620001a75780633f4ba83a11620001725780633f4ba83a14620003555780634a2cfb54146200035f5780635a03049314620003875780635c975abb14620003c557600080fd5b8063315d6e6014620002e857806335ee5f87146200031057806336568abe14620003275780633be5b75a146200033e57600080fd5b80631e59c52911620001e85780631e59c529146200026e578063248a9ca314620002855780632f2ff15d14620002ba57806330b39a6214620002d157600080fd5b806301ffc9a7146200021257806317d50110146200023e5780631ae312b61462000257575b600080fd5b620002296200022336600462001e21565b620005cf565b60405190151581526020015b60405180910390f35b620002556200024f36600462001e63565b62000607565b005b620002556200026836600462001f70565b620006df565b620002556200027f3660046200206d565b62000860565b620002ab62000296366004620020c9565b60009081526020819052604090206001015490565b60405190815260200162000235565b62000255620002cb366004620020e3565b62000a45565b62000255620002e23660046200210b565b62000a73565b620002ab7fbbf69cecb19a7631090bc44be5c8d6dc7252abfdf543638b7bfa9f19181fca7f81565b620002ab6200032136600462002153565b62000cb3565b6200025562000338366004620020e3565b62000d00565b620002556200034f3660046200218b565b62000d7e565b6200025562000efc565b620002ab7f850d585eb7f024ccee5e68e55f2c26cc72e1e6ee456acf62135757a5eb9d4a1081565b620003b66040518060400160405280600f81526020016e6374785f6d61726b6574706c61636560881b81525081565b604051620002359190620022f3565b60025460ff1662000229565b620003e8620003e236600462002308565b62000f16565b604080516001600160a01b0393841681529290911660208301520162000235565b620002ab60035481565b62000255620004243660046200234d565b62000f97565b620004676200043b366004620020c9565b6007602052600090815260409020805460018201546002909201546001600160a01b0391821692911683565b604080516001600160a01b039485168152602081019390935292169181019190915260600162000235565b6200025562001112565b62000255620004ad3660046200210b565b62001129565b62000229620004c4366004620020e3565b620012a0565b620002ab600081565b600554620004e7906001600160a01b031681565b6040516001600160a01b03909116815260200162000235565b620002ab7f88aa719609f728b0c5e7fb8dd3608d5c25d497efbb3b9dd64e9251ebba10150881565b620003e862000539366004620020c9565b600660205260009081526040902080546001909101546001600160a01b03918216911682565b62000255620005703660046200242e565b620012c9565b6200025562000587366004620020e3565b620014c2565b620002556200059e366004620024a1565b620014eb565b62000255620005b536600462002153565b620015f4565b600454620004e7906001600160a01b031681565b60006001600160e01b03198216637965db0b60e01b14806200060157506301ffc9a760e01b6001600160e01b03198316145b92915050565b7f88aa719609f728b0c5e7fb8dd3608d5c25d497efbb3b9dd64e9251ebba1015086200063381620016d1565b6200063d620016dd565b6003546200064d90600162002503565b6003818155600091825260066020908152604080842080546001600160a01b03199081166001600160a01b038a81169182179093558554875295839020600101805490911691881691821790559254815190815291820193909352918201527ff5862f646a730fdd05589b0393fe9afdb22d7ee9f77b5c6bc5ba0776ff5d369f906060015b60405180910390a1505050565b620006e9620016dd565b8351602080860191909120600081815260079092526040909120546001600160a01b0316620007355760405162461bcd60e51b81526004016200072c906200251e565b60405180910390fd5b6000818152600760205260409020546001600160a01b031633146200076e5760405162461bcd60e51b81526004016200072c906200254b565b6200077d813384600362001727565b1515600114620007a15760405162461bcd60e51b81526004016200072c9062002582565b600081815260076020526040908190206002015490516302764e3160e01b81526001600160a01b039091169081906302764e3190620007e79088908890600401620025ae565b600060405180830381600087803b1580156200080257600080fd5b505af115801562000817573d6000803e3d6000fd5b505050507fda7f3abde302933380387d275621885cf97979815d276ac8e2a70667f2b1f64a8686866040516200085093929190620025e0565b60405180910390a1505050505050565b7f850d585eb7f024ccee5e68e55f2c26cc72e1e6ee456acf62135757a5eb9d4a106200088c81620016d1565b62000896620016dd565b60035460009081526006602052604090819020600101549051631e30397f60e01b81526001600160a01b0390911690631e30397f90620008dd90879087906004016200266e565b60206040518083038186803b158015620008f657600080fd5b505afa1580156200090b573d6000803e3d6000fd5b505050506040513d601f19601f8201168201806040525081019062000931919062002684565b6200096e5760405162461bcd60e51b815260206004820152600c60248201526b496e76616c6964206e616d6560a01b60448201526064016200072c565b6000848460405162000982929190620026a8565b604051809103902090506000306040516200099d9062001e13565b6001600160a01b039091168152602001604051809103906000f080158015620009ca573d6000803e3d6000fd5b506000838152600760205260408082206002810180546001600160a01b038087166001600160a01b0319928316179092558254918a16911617815560010191909155519091507f2a263b4b77f66478bd46eb98b273fa3b8c5e63d1300e6733d701436c8e3618409062000850908890889088903390620026b8565b60008281526020819052604090206001015462000a6281620016d1565b62000a6e8383620019b1565b505050565b62000a7d62001a39565b62000a87620016dd565b8151602080840191909120600090815260079091526040902080546001600160a01b031662000aca5760405162461bcd60e51b81526004016200072c90620026ef565b80546001600160a01b0316331462000b315760405162461bcd60e51b815260206004820152602360248201527f4f6e6c79206e616d65206f776e65722063616e20776974686472617720746f6b604482015262656e7360e81b60648201526084016200072c565b818160010154101562000b7e5760405162461bcd60e51b8152602060048201526014602482015273496e73756666696369656e742062616c616e636560601b60448201526064016200072c565b60048054825460405163a9059cbb60e01b81526001600160a01b039182169381019390935260248301859052169063a9059cbb90604401602060405180830381600087803b15801562000bd057600080fd5b505af115801562000be5573d6000803e3d6000fd5b505050506040513d601f19601f8201168201806040525081019062000c0b919062002684565b62000c4b5760405162461bcd60e51b815260206004820152600f60248201526e151c985b9cd9995c8819985a5b1959608a1b60448201526064016200072c565b8181600101600082825462000c61919062002726565b90915550506040517fde6d609041ad87047acddd604b3b13c664f6e0cc43dc423811bea66057e2a60c9062000c9c9033908690869062002740565b60405180910390a15062000caf60018055565b5050565b8051602080830191909120600090815260079091526040812080546001600160a01b031662000cf65760405162461bcd60e51b81526004016200072c90620026ef565b6001015492915050565b6001600160a01b038116331462000d725760405162461bcd60e51b815260206004820152602f60248201527f416363657373436f6e74726f6c3a2063616e206f6e6c792072656e6f756e636560448201526e103937b632b9903337b91039b2b63360891b60648201526084016200072c565b62000caf828262001a95565b62000d88620016dd565b8551602080880191909120600081815260079092526040909120546001600160a01b031662000dcb5760405162461bcd60e51b81526004016200072c906200251e565b6000818152600760205260409020546001600160a01b0316331462000e045760405162461bcd60e51b81526004016200072c906200254b565b62000e13813384600162001727565b151560011462000e375760405162461bcd60e51b81526004016200072c9062002582565b60008181526007602052604090819020600201549051630c5b487b60e41b81526001600160a01b0390911690819063c5b487b09062000e81908a908a908a908a9060040162002776565b600060405180830381600087803b15801562000e9c57600080fd5b505af115801562000eb1573d6000803e3d6000fd5b505050507fda7f3abde302933380387d275621885cf97979815d276ac8e2a70667f2b1f64a88888660405162000eea93929190620027d6565b60405180910390a15050505050505050565b600062000f0981620016d1565b62000f1362001afd565b50565b600080600060076000868660405162000f31929190620026a8565b6040805191829003909120825260208201929092520160002080549091506001600160a01b031662000f775760405162461bcd60e51b81526004016200072c9062002807565b80546002909101546001600160a01b0391821693501690505b9250929050565b62000fa1620016dd565b8451602080870191909120600081815260079092526040909120546001600160a01b031662000fe45760405162461bcd60e51b81526004016200072c906200251e565b6000818152600760205260409020546001600160a01b031633146200101d5760405162461bcd60e51b81526004016200072c906200254b565b6200102c813384600262001727565b1515600114620010505760405162461bcd60e51b81526004016200072c9062002582565b6000818152600760205260409081902060020154905163ecf260af60e01b81526001600160a01b0390911690819063ecf260af90620010989089908990899060040162002834565b600060405180830381600087803b158015620010b357600080fd5b505af1158015620010c8573d6000803e3d6000fd5b505050507fda7f3abde302933380387d275621885cf97979815d276ac8e2a70667f2b1f64a878786604051620011019392919062002873565b60405180910390a150505050505050565b60006200111f81620016d1565b62000f1362001b51565b6200113362001a39565b6200113d620016dd565b8151602080840191909120600090815260079091526040902080546001600160a01b0316620011805760405162461bcd60e51b81526004016200072c90620026ef565b600480546040516323b872dd60e01b81523392810192909252306024830152604482018490526001600160a01b0316906323b872dd90606401602060405180830381600087803b158015620011d457600080fd5b505af1158015620011e9573d6000803e3d6000fd5b505050506040513d601f19601f820116820180604052508101906200120f919062002684565b6200124f5760405162461bcd60e51b815260206004820152600f60248201526e151c985b9cd9995c8819985a5b1959608a1b60448201526064016200072c565b8181600101600082825462001265919062002503565b90915550506040517ffd9b6bc92c4be1bfae6c779582ad0e3d9ad58ae6c24aa2dd06f01713069b12b79062000c9c9033908690869062002740565b6000918252602082815260408084206001600160a01b0393909316845291905290205460ff1690565b620012d362001a39565b620012dd620016dd565b825160208085019190912060009081526007825260408082208551938601939093208252902081546001600160a01b03166200134e5760405162461bcd60e51b815260206004820152600f60248201526e119c9bdb481b5d5cdd08195e1a5cdd608a1b60448201526064016200072c565b81546001600160a01b03163314620013a25760405162461bcd60e51b81526020600482015260166024820152752ab9b2b91036bab9ba103132903a34329037bbb732b960511b60448201526064016200072c565b80546001600160a01b0316620013eb5760405162461bcd60e51b815260206004820152600d60248201526c151bc81b5d5cdd08195e1a5cdd609a1b60448201526064016200072c565b828260010154118015620013ff5750600083115b6200143e5760405162461bcd60e51b815260206004820152600e60248201526d125b985d9b1a5908185b5bdd5b9d60921b60448201526064016200072c565b8282600101600082825462001454919062002726565b925050819055508281600101600082825462001471919062002503565b90915550506040517fc94c5d9cb9a7879e4f4af94749ff19d237858b9b8046b43db78c0b4e14310f2190620014ae903390889088908890620028a4565b60405180910390a1505062000a6e60018055565b600082815260208190526040902060010154620014df81620016d1565b62000a6e838362001a95565b620014f5620016dd565b8151602080840191909120600090815260079091526040902080546001600160a01b0316620015385760405162461bcd60e51b81526004016200072c9062002807565b80546001600160a01b03163314620015a75760405162461bcd60e51b815260206004820152602b60248201527f4f6e6c79207468652063757272656e74206f776e65722063616e20757064617460448201526a32903a34329037bbb732b960a91b60648201526084016200072c565b80546001600160a01b0319166001600160a01b0383161781556040517fe57c3cd8f7e9e123332b14a9b748a5b8488643cf100497beb6b2f9246b9bf5bb90620006d29085908590620028f0565b7fbbf69cecb19a7631090bc44be5c8d6dc7252abfdf543638b7bfa9f19181fca7f6200162081620016d1565b6200162a620016dd565b8151602080840191909120600081815260079092526040909120546001600160a01b03166200166d5760405162461bcd60e51b81526004016200072c9062002807565b60008181526007602052604080822080546001600160a01b0319908116825560018201939093556002018054909216909155517ffc824ada7963ca523687a33fb31d247adf455c666247e084c9207ec7382f52bb90620006d290339086906200291c565b62000f13813362001b91565b60025460ff1615620017255760405162461bcd60e51b815260206004820152601060248201526f14185d5cd8589b194e881c185d5cd95960821b60448201526064016200072c565b565b6000600354600014156200173e57506001620019a9565b60035460009081526006602052604080822060010154905163ceb8e06160e01b815282916001600160a01b03169063ceb8e06190620017889088908b908b908a9060040162002942565b60006040518083038186803b158015620017a157600080fd5b505afa158015620017b6573d6000803e3d6000fd5b505050506040513d6000823e601f3d908101601f19168201604052620017e0919081019062002a13565b915091506000805b83518110156200199757600083828151811062001809576200180962002b38565b6020026020010151111562001982578281815181106200182d576200182d62002b38565b6020026020010151600760008b815260200190815260200160002060010154101562001861576000945050505050620019a9565b6000600760008684815181106200187c576200187c62002b38565b602090810291909101810151805190820120825281810192909252604090810160009081208d8252600790935220549091506001600160a01b0316620018cb57600095505050505050620019a9565b838281518110620018e057620018e062002b38565b6020026020010151600760008c8152602001908152602001600020600101546200190b919062002726565b60008b815260076020526040902060010155835184908390811062001934576200193462002b38565b602002602001015181600101546200194d919062002503565b6001820155835184908390811062001969576200196962002b38565b6020026020010151836200197e919062002503565b9250505b806200198e8162002b4e565b915050620017e8565b50505060008690525050600760205260015b949350505050565b620019bd8282620012a0565b62000caf576000828152602081815260408083206001600160a01b03851684529091529020805460ff19166001179055620019f53390565b6001600160a01b0316816001600160a01b0316837f2f8788117e7eff1d82e926ec794901d17c78024a50270940304540a733656f0d60405160405180910390a45050565b6002600154141562001a8e5760405162461bcd60e51b815260206004820152601f60248201527f5265656e7472616e637947756172643a207265656e7472616e742063616c6c0060448201526064016200072c565b6002600155565b62001aa18282620012a0565b1562000caf576000828152602081815260408083206001600160a01b0385168085529252808320805460ff1916905551339285917ff6391f5c32d9c69d2a47ea670b442974b53935d1edc7fd64eb21e047a839171b9190a45050565b62001b0762001bf5565b6002805460ff191690557f5db9ee0a495bf2e6ff9c91a7834c1ba4fdd244a5e8aa4e537bd38aeae4b073aa335b6040516001600160a01b03909116815260200160405180910390a1565b62001b5b620016dd565b6002805460ff191660011790557f62e78cea01bee320cd4e420270b5ea74000d11b0c9f74754ebdbfc544b05a25862001b343390565b62001b9d8282620012a0565b62000caf5762001bad8162001c40565b62001bba83602062001c53565b60405160200162001bcd92919062002b6c565b60408051601f198184030181529082905262461bcd60e51b82526200072c91600401620022f3565b60025460ff16620017255760405162461bcd60e51b815260206004820152601460248201527314185d5cd8589b194e881b9bdd081c185d5cd95960621b60448201526064016200072c565b6060620006016001600160a01b03831660145b6060600062001c6483600262002be5565b62001c7190600262002503565b6001600160401b0381111562001c8b5762001c8b62001ea1565b6040519080825280601f01601f19166020018201604052801562001cb6576020820181803683370190505b509050600360fc1b8160008151811062001cd45762001cd462002b38565b60200101906001600160f81b031916908160001a905350600f60fb1b8160018151811062001d065762001d0662002b38565b60200101906001600160f81b031916908160001a905350600062001d2c84600262002be5565b62001d3990600162002503565b90505b600181111562001dbb576f181899199a1a9b1b9c1cb0b131b232b360811b85600f166010811062001d715762001d7162002b38565b1a60f81b82828151811062001d8a5762001d8a62002b38565b60200101906001600160f81b031916908160001a90535060049490941c9362001db38162002c07565b905062001d3c565b50831562001e0c5760405162461bcd60e51b815260206004820181905260248201527f537472696e67733a20686578206c656e67746820696e73756666696369656e7460448201526064016200072c565b9392505050565b610fa18062002c2283390190565b60006020828403121562001e3457600080fd5b81356001600160e01b03198116811462001e0c57600080fd5b6001600160a01b038116811462000f1357600080fd5b6000806040838503121562001e7757600080fd5b823562001e848162001e4d565b9150602083013562001e968162001e4d565b809150509250929050565b634e487b7160e01b600052604160045260246000fd5b604051601f8201601f191681016001600160401b038111828210171562001ee25762001ee262001ea1565b604052919050565b60006001600160401b0382111562001f065762001f0662001ea1565b50601f01601f191660200190565b600082601f83011262001f2657600080fd5b813562001f3d62001f378262001eea565b62001eb7565b81815284602083860101111562001f5357600080fd5b816020850160208301376000918101602001919091529392505050565b6000806000806080858703121562001f8757600080fd5b84356001600160401b038082111562001f9f57600080fd5b62001fad8883890162001f14565b9550602087013591508082111562001fc457600080fd5b62001fd28883890162001f14565b9450604087013591508082111562001fe957600080fd5b62001ff78883890162001f14565b935060608701359150808211156200200e57600080fd5b506200201d8782880162001f14565b91505092959194509250565b60008083601f8401126200203c57600080fd5b5081356001600160401b038111156200205457600080fd5b60208301915083602082850101111562000f9057600080fd5b6000806000604084860312156200208357600080fd5b83356001600160401b038111156200209a57600080fd5b620020a88682870162002029565b9094509250506020840135620020be8162001e4d565b809150509250925092565b600060208284031215620020dc57600080fd5b5035919050565b60008060408385031215620020f757600080fd5b82359150602083013562001e968162001e4d565b600080604083850312156200211f57600080fd5b82356001600160401b038111156200213657600080fd5b620021448582860162001f14565b95602094909401359450505050565b6000602082840312156200216657600080fd5b81356001600160401b038111156200217d57600080fd5b620019a98482850162001f14565b60008060008060008060c08789031215620021a557600080fd5b86356001600160401b0380821115620021bd57600080fd5b620021cb8a838b0162001f14565b97506020890135915080821115620021e257600080fd5b620021f08a838b0162001f14565b965060408901359150808211156200220757600080fd5b620022158a838b0162001f14565b955060608901359150808211156200222c57600080fd5b6200223a8a838b0162001f14565b945060808901359150808211156200225157600080fd5b6200225f8a838b0162001f14565b935060a08901359150808211156200227657600080fd5b506200228589828a0162001f14565b9150509295509295509295565b60005b83811015620022af57818101518382015260200162002295565b83811115620022bf576000848401525b50505050565b60008151808452620022df81602086016020860162002292565b601f01601f19169290920160200192915050565b60208152600062001e0c6020830184620022c5565b600080602083850312156200231c57600080fd5b82356001600160401b038111156200233357600080fd5b620023418582860162002029565b90969095509350505050565b600080600080600060a086880312156200236657600080fd5b85356001600160401b03808211156200237e57600080fd5b6200238c89838a0162001f14565b96506020880135915080821115620023a357600080fd5b620023b189838a0162001f14565b95506040880135915080821115620023c857600080fd5b620023d689838a0162001f14565b94506060880135915080821115620023ed57600080fd5b620023fb89838a0162001f14565b935060808801359150808211156200241257600080fd5b50620024218882890162001f14565b9150509295509295909350565b6000806000606084860312156200244457600080fd5b83356001600160401b03808211156200245c57600080fd5b6200246a8783880162001f14565b945060208601359150808211156200248157600080fd5b50620024908682870162001f14565b925050604084013590509250925092565b60008060408385031215620024b557600080fd5b82356001600160401b03811115620024cc57600080fd5b620024da8582860162001f14565b925050602083013562001e968162001e4d565b634e487b7160e01b600052601160045260246000fd5b60008219821115620025195762002519620024ed565b500190565b60208082526013908201527213985b59481b9bdd081c9959da5cdd195c9959606a1b604082015260600190565b60208082526017908201527f43616c6c6572206973206e6f7420746865206f776e6572000000000000000000604082015260600190565b6020808252601290820152714661696c656420746f20706179207469707360701b604082015260600190565b604081526000620025c36040830185620022c5565b8281036020840152620025d78185620022c5565b95945050505050565b6080815260056080820152640a0c2e8c6d60db1b60a082015260c0602082015260006200261160c0830186620022c5565b8281036040840152620026258186620022c5565b905082810360608401526200263b8185620022c5565b9695505050505050565b81835281816020850137506000828201602090810191909152601f909101601f19169091010190565b602081526000620019a960208301848662002645565b6000602082840312156200269757600080fd5b8151801515811462001e0c57600080fd5b8183823760009101908152919050565b606081526000620026ce60608301868862002645565b6001600160a01b039485166020840152929093166040909101529392505050565b60208082526017908201527f446f63756d656e7420646f6573206e6f74206578697374000000000000000000604082015260600190565b6000828210156200273b576200273b620024ed565b500390565b6001600160a01b03841681526060602082018190526000906200276690830185620022c5565b9050826040830152949350505050565b6080815260006200278b6080830187620022c5565b82810360208401526200279f8187620022c5565b90508281036040840152620027b58186620022c5565b90508281036060840152620027cb8185620022c5565b979650505050505050565b60808152600560808201526426b0b537b960d91b60a082015260c0602082015260006200261160c0830186620022c5565b602080825260139082015272111bd8dd5b595b9d081b5d5cdd08195e1a5cdd606a1b604082015260600190565b606081526000620028496060830186620022c5565b82810360208401526200285d8186620022c5565b905082810360408401526200263b8185620022c5565b60808152600560808201526426b4b737b960d91b60a082015260c0602082015260006200261160c0830186620022c5565b6001600160a01b0385168152608060208201819052600090620028ca90830186620022c5565b8281036040840152620028de8186620022c5565b91505082606083015295945050505050565b604081526000620029056040830185620022c5565b905060018060a01b03831660208301529392505050565b6001600160a01b0383168152604060208201819052600090620019a990830184620022c5565b608081526000620029576080830187620022c5565b6020830195909552506001600160a01b0392909216604083015261ffff16606090910152919050565b60006001600160401b038211156200299c576200299c62001ea1565b5060051b60200190565b600082601f830112620029b857600080fd5b81516020620029cb62001f378362002980565b82815260059290921b84018101918181019086841115620029eb57600080fd5b8286015b8481101562002a085780518352918301918301620029ef565b509695505050505050565b600080604080848603121562002a2857600080fd5b83516001600160401b038082111562002a4057600080fd5b818601915086601f83011262002a5557600080fd5b8151602062002a6862001f378362002980565b82815260059290921b8401810191818101908a84111562002a8857600080fd5b8286015b8481101562002b035780518681111562002aa65760008081fd5b8701603f81018d1362002ab95760008081fd5b8481015162002acc62001f378262001eea565b8181528e8b83850101111562002ae25760008081fd5b62002af3828883018d860162002292565b8552505091830191830162002a8c565b509189015191975090945050508083111562002b1e57600080fd5b505062002b2e85828601620029a6565b9150509250929050565b634e487b7160e01b600052603260045260246000fd5b600060001982141562002b655762002b65620024ed565b5060010190565b7f416363657373436f6e74726f6c3a206163636f756e742000000000000000000081526000835162002ba681601785016020880162002292565b7001034b99036b4b9b9b4b733903937b6329607d1b601791840191820152835162002bd981602884016020880162002292565b01602801949350505050565b600081600019048311821515161562002c025762002c02620024ed565b500290565b60008162002c195762002c19620024ed565b50600019019056fe608060405234801561001057600080fd5b5060405162000fa138038062000fa183398101604081905261003191610173565b61003a33610049565b61004381610099565b506101a3565b600080546001600160a01b038381166001600160a01b0319831681178455604051919092169283917f8be0079c531659141344cd1fd0a4f28419497f9722a3daafe3b4186f6b6457e09190a35050565b6100a1610117565b6001600160a01b03811661010b5760405162461bcd60e51b815260206004820152602660248201527f4f776e61626c653a206e6577206f776e657220697320746865207a65726f206160448201526564647265737360d01b60648201526084015b60405180910390fd5b61011481610049565b50565b6000546001600160a01b031633146101715760405162461bcd60e51b815260206004820181905260248201527f4f776e61626c653a2063616c6c6572206973206e6f7420746865206f776e65726044820152606401610102565b565b60006020828403121561018557600080fd5b81516001600160a01b038116811461019c57600080fd5b9392505050565b610dee80620001b36000396000f3fe608060405234801561001057600080fd5b50600436106100935760003560e01c80638da5cb5b116100665780638da5cb5b146100f4578063a51ec3bf1461010f578063c5b487b014610150578063ecf260af14610163578063f2fde38b1461017657600080fd5b806302764e3114610098578063616ffe83146100ad578063668e7d9c146100d9578063715018a6146100ec575b600080fd5b6100ab6100a636600461098a565b610189565b005b6100c06100bb366004610a35565b61025d565b6040516100d09493929190610ac3565b60405180910390f35b6100c06100e7366004610b16565b6102bf565b6100ab61050d565b6000546040516001600160a01b0390911681526020016100d0565b61013861011d366004610b74565b6001602052600090815260409020546001600160401b031681565b6040516001600160401b0390911681526020016100d0565b6100ab61015e366004610b8d565b610521565b6100ab610171366004610c39565b61060b565b6100ab610184366004610cc0565b61072c565b6101916107a5565b815160208084019190912060008181526001909252604090912080546001600160401b03166102015760405162461bcd60e51b8152602060048201526017602482015276111bd8dd5b595b9d08191bd95cc81b9bdd08195e1a5cdd604a1b60448201526064015b60405180910390fd5b8054610217906001600160401b03166001610d06565b815467ffffffffffffffff19166001600160401b039190911690811782556000908152600382016020908152604090912084516102569286019061084f565b5050505050565b60006060806060600060016000888860405161027a929190610d31565b6040805191829003909120825260208201929092520160002080549091506102ae90889088906001600160401b03166102bf565b929a91995097509095509350505050565b6000606080606060006001600089896040516102dc929190610d31565b60408051918290039091208252602080830193909352908101600090812061ffff8a851c908116835260018201855283832060108c901c63ffffffff81811686526002850188528686206001600160401b038f16875260038601909852959094208154939750949091169465ffffffffffff909316938b939192839061036190610d41565b80601f016020809104026020016040519081016040528092919081815260200182805461038d90610d41565b80156103da5780601f106103af576101008083540402835291602001916103da565b820191906000526020600020905b8154815290600101906020018083116103bd57829003601f168201915b505050505092508180546103ed90610d41565b80601f016020809104026020016040519081016040528092919081815260200182805461041990610d41565b80156104665780601f1061043b57610100808354040283529160200191610466565b820191906000526020600020905b81548152906001019060200180831161044957829003601f168201915b5050505050915080805461047990610d41565b80601f01602080910402602001604051908101604052809291908181526020018280546104a590610d41565b80156104f25780601f106104c7576101008083540402835291602001916104f2565b820191906000526020600020905b8154815290600101906020018083116104d557829003601f168201915b50505050509050965096509650965050505093509350935093565b6105156107a5565b61051f60006107ff565b565b6105296107a5565b8351602080860191909120600081815260018084526040822080549394909361055a92911c63ffffffff1690610d7c565b61ffff811660009081526001840160209081526040909120885192935061058592909189019061084f565b508154602082811b65ffff000000001667ffffffffffffffff19909216919091178355601082901b63ffff000016600081815260028501835260409020875191926105d3929089019061084f565b5082546001600160401b03166000908152600384016020908152604090912086516106009288019061084f565b505050505050505050565b6106136107a5565b825160208085019190912060008181526001909252604090912080546001600160401b031661067e5760405162461bcd60e51b8152602060048201526017602482015276111bd8dd5b595b9d08191bd95cc81b9bdd08195e1a5cdd604a1b60448201526064016101f8565b8054602081901c63ffffffff16906000906106a59060101c65ffffffffffff166001610d99565b835467ffffffffffffffff191665ffff00000000602085811b9190911665ffffffff0000601085901b161791909117855563ffffffff8216600090815260028601825260408120895193945090926106ff928a019061084f565b5083546001600160401b03166000908152600385016020908152604090912087516106009289019061084f565b6107346107a5565b6001600160a01b0381166107995760405162461bcd60e51b815260206004820152602660248201527f4f776e61626c653a206e6577206f776e657220697320746865207a65726f206160448201526564647265737360d01b60648201526084016101f8565b6107a2816107ff565b50565b6000546001600160a01b0316331461051f5760405162461bcd60e51b815260206004820181905260248201527f4f776e61626c653a2063616c6c6572206973206e6f7420746865206f776e657260448201526064016101f8565b600080546001600160a01b038381166001600160a01b0319831681178455604051919092169283917f8be0079c531659141344cd1fd0a4f28419497f9722a3daafe3b4186f6b6457e09190a35050565b82805461085b90610d41565b90600052602060002090601f01602090048101928261087d57600085556108c3565b82601f1061089657805160ff19168380011785556108c3565b828001600101855582156108c3579182015b828111156108c35782518255916020019190600101906108a8565b506108cf9291506108d3565b5090565b5b808211156108cf57600081556001016108d4565b634e487b7160e01b600052604160045260246000fd5b600082601f83011261090f57600080fd5b81356001600160401b0380821115610929576109296108e8565b604051601f8301601f19908116603f01168101908282118183101715610951576109516108e8565b8160405283815286602085880101111561096a57600080fd5b836020870160208301376000602085830101528094505050505092915050565b6000806040838503121561099d57600080fd5b82356001600160401b03808211156109b457600080fd5b6109c0868387016108fe565b935060208501359150808211156109d657600080fd5b506109e3858286016108fe565b9150509250929050565b60008083601f8401126109ff57600080fd5b5081356001600160401b03811115610a1657600080fd5b602083019150836020828501011115610a2e57600080fd5b9250929050565b60008060208385031215610a4857600080fd5b82356001600160401b03811115610a5e57600080fd5b610a6a858286016109ed565b90969095509350505050565b6000815180845260005b81811015610a9c57602081850181015186830182015201610a80565b81811115610aae576000602083870101525b50601f01601f19169290920160200192915050565b6001600160401b0385168152608060208201526000610ae56080830186610a76565b8281036040840152610af78186610a76565b90508281036060840152610b0b8185610a76565b979650505050505050565b600080600060408486031215610b2b57600080fd5b83356001600160401b0380821115610b4257600080fd5b610b4e878388016109ed565b9095509350602086013591508082168214610b6857600080fd5b50809150509250925092565b600060208284031215610b8657600080fd5b5035919050565b60008060008060808587031215610ba357600080fd5b84356001600160401b0380821115610bba57600080fd5b610bc6888389016108fe565b95506020870135915080821115610bdc57600080fd5b610be8888389016108fe565b94506040870135915080821115610bfe57600080fd5b610c0a888389016108fe565b93506060870135915080821115610c2057600080fd5b50610c2d878288016108fe565b91505092959194509250565b600080600060608486031215610c4e57600080fd5b83356001600160401b0380821115610c6557600080fd5b610c71878388016108fe565b94506020860135915080821115610c8757600080fd5b610c93878388016108fe565b93506040860135915080821115610ca957600080fd5b50610cb6868287016108fe565b9150509250925092565b600060208284031215610cd257600080fd5b81356001600160a01b0381168114610ce957600080fd5b9392505050565b634e487b7160e01b600052601160045260246000fd5b60006001600160401b03808316818516808303821115610d2857610d28610cf0565b01949350505050565b8183823760009101908152919050565b600181811c90821680610d5557607f821691505b60208210811415610d7657634e487b7160e01b600052602260045260246000fd5b50919050565b600061ffff808316818516808303821115610d2857610d28610cf0565b600063ffffffff808316818516808303821115610d2857610d28610cf056fea26469706673582212208cda3f536fa71e8a89014ab93cdfef48a8e5391033168e77a9e3d3c174877ad064736f6c63430008090033a26469706673582212202a5255b592fce3ce5032110a33c9d39e1011564077e0e902fe80451e89f54b7f64736f6c63430008090033",
  "linkReferences": {},
  "deployedLinkReferences": {}
}